{
  "_format": "hh-sol-artifact-1",
  "contractName": "Market",
  "sourceName": "contracts/Market.sol",
  "abi": [
    {
      "inputs": [
        {
          "internalType": "address",
          "name": "_feeAccount",
          "type": "address"
        },
        {
          "internalType": "uint256",
          "name": "_feePercentage",
          "type": "uint256"
        }
      ],
      "stateMutability": "nonpayable",
      "type": "constructor"
    },
    {
      "inputs": [],
      "name": "ReentrancyGuardReentrantCall",
      "type": "error"
    },
    {
      "anonymous": false,
      "inputs": [
        {
          "indexed": false,
          "internalType": "uint256",
          "name": "itemId",
          "type": "uint256"
        },
        {
          "indexed": true,
          "internalType": "address",
          "name": "nft",
          "type": "address"
        },
        {
          "indexed": false,
          "internalType": "uint256",
          "name": "tokenId",
          "type": "uint256"
        },
        {
          "indexed": false,
          "internalType": "uint256",
          "name": "price",
          "type": "uint256"
        },
        {
          "indexed": false,
          "internalType": "address",
          "name": "owner",
          "type": "address"
        },
        {
          "indexed": false,
          "internalType": "address",
          "name": "co_owner",
          "type": "address"
        },
        {
          "indexed": false,
          "internalType": "uint256",
          "name": "owner_cut",
          "type": "uint256"
        },
        {
          "indexed": false,
          "internalType": "address",
          "name": "buyer",
          "type": "address"
        }
      ],
      "name": "Bought",
      "type": "event"
    },
    {
      "anonymous": false,
      "inputs": [
        {
          "indexed": false,
          "internalType": "uint256",
          "name": "itemId",
          "type": "uint256"
        },
        {
          "indexed": true,
          "internalType": "address",
          "name": "nft",
          "type": "address"
        },
        {
          "indexed": false,
          "internalType": "uint256",
          "name": "tokenId",
          "type": "uint256"
        },
        {
          "indexed": false,
          "internalType": "uint256",
          "name": "price",
          "type": "uint256"
        },
        {
          "indexed": false,
          "internalType": "address",
          "name": "owner",
          "type": "address"
        },
        {
          "indexed": false,
          "internalType": "address",
          "name": "co_owner",
          "type": "address"
        },
        {
          "indexed": false,
          "internalType": "uint256",
          "name": "owner_cut",
          "type": "uint256"
        }
      ],
      "name": "Offered",
      "type": "event"
    },
    {
      "inputs": [
        {
          "internalType": "contract IERC721",
          "name": "_nft",
          "type": "address"
        },
        {
          "internalType": "uint256",
          "name": "_tokenId",
          "type": "uint256"
        },
        {
          "internalType": "uint256",
          "name": "_price",
          "type": "uint256"
        },
        {
          "internalType": "address",
          "name": "_coOwner",
          "type": "address"
        },
        {
          "internalType": "uint256",
          "name": "_selfCut",
          "type": "uint256"
        }
      ],
      "name": "Co_listItem",
      "outputs": [],
      "stateMutability": "nonpayable",
      "type": "function"
    },
    {
      "inputs": [
        {
          "internalType": "uint256",
          "name": "_itemId",
          "type": "uint256"
        }
      ],
      "name": "buyNft",
      "outputs": [],
      "stateMutability": "payable",
      "type": "function"
    },
    {
      "inputs": [],
      "name": "feeAccount",
      "outputs": [
        {
          "internalType": "address payable",
          "name": "",
          "type": "address"
        }
      ],
      "stateMutability": "view",
      "type": "function"
    },
    {
      "inputs": [],
      "name": "feePercentage",
      "outputs": [
        {
          "internalType": "uint256",
          "name": "",
          "type": "uint256"
        }
      ],
      "stateMutability": "view",
      "type": "function"
    },
    {
      "inputs": [
        {
          "internalType": "uint256",
          "name": "_itemId",
          "type": "uint256"
        }
      ],
      "name": "getPrice",
      "outputs": [
        {
          "internalType": "uint256",
          "name": "",
          "type": "uint256"
        }
      ],
      "stateMutability": "view",
      "type": "function"
    },
    {
      "inputs": [],
      "name": "itemCount",
      "outputs": [
        {
          "internalType": "uint256",
          "name": "",
          "type": "uint256"
        }
      ],
      "stateMutability": "view",
      "type": "function"
    },
    {
      "inputs": [
        {
          "internalType": "uint256",
          "name": "",
          "type": "uint256"
        }
      ],
      "name": "items",
      "outputs": [
        {
          "internalType": "uint256",
          "name": "itemId",
          "type": "uint256"
        },
        {
          "internalType": "contract IERC721",
          "name": "nft",
          "type": "address"
        },
        {
          "internalType": "uint256",
          "name": "tokenId",
          "type": "uint256"
        },
        {
          "internalType": "uint256",
          "name": "price",
          "type": "uint256"
        },
        {
          "internalType": "address payable",
          "name": "owner",
          "type": "address"
        },
        {
          "internalType": "address payable",
          "name": "co_owner",
          "type": "address"
        },
        {
          "internalType": "uint256",
          "name": "owner_cut",
          "type": "uint256"
        },
        {
          "internalType": "bool",
          "name": "sold",
          "type": "bool"
        }
      ],
      "stateMutability": "view",
      "type": "function"
    },
    {
      "inputs": [
        {
          "internalType": "contract IERC721",
          "name": "_nft",
          "type": "address"
        },
        {
          "internalType": "uint256",
          "name": "_tokenId",
          "type": "uint256"
        },
        {
          "internalType": "uint256",
          "name": "_price",
          "type": "uint256"
        }
      ],
      "name": "listItem",
      "outputs": [],
      "stateMutability": "nonpayable",
      "type": "function"
    }
  ],
  "bytecode": "0x60c06040523480156200001157600080fd5b5060405162001a3c38038062001a3c833981810160405281019062000037919062000130565b60016000819055508173ffffffffffffffffffffffffffffffffffffffff1660808173ffffffffffffffffffffffffffffffffffffffff16815250508060a081815250506000600181905550505062000177565b600080fd5b600073ffffffffffffffffffffffffffffffffffffffff82169050919050565b6000620000bd8262000090565b9050919050565b620000cf81620000b0565b8114620000db57600080fd5b50565b600081519050620000ef81620000c4565b92915050565b6000819050919050565b6200010a81620000f5565b81146200011657600080fd5b50565b6000815190506200012a81620000ff565b92915050565b600080604083850312156200014a57620001496200008b565b5b60006200015a85828601620000de565b92505060206200016d8582860162000119565b9150509250929050565b60805160a051611891620001ab60003960008181610b160152610c0f0152600081816107f90152610ec601526118916000f3fe60806040526004361061007b5760003560e01c806389bfd38f1161004e57806389bfd38f1461011b578063a001ecdd14610144578063bfb231d21461016f578063e7572230146101b35761007b565b8063243adbdd146100805780633fdc15cd1461009c57806365e17c9d146100c55780636bfb0d01146100f0575b600080fd5b61009a60048036038101906100959190610f79565b6101f0565b005b3480156100a857600080fd5b506100c360048036038101906100be9190611042565b610449565b005b3480156100d157600080fd5b506100da6107f7565b6040516100e791906110de565b60405180910390f35b3480156100fc57600080fd5b5061010561081b565b6040516101129190611108565b60405180910390f35b34801561012757600080fd5b50610142600480360381019061013d9190611123565b610821565b005b34801561015057600080fd5b50610159610b14565b6040516101669190611108565b60405180910390f35b34801561017b57600080fd5b5061019660048036038101906101919190610f79565b610b38565b6040516101aa9897969594939291906111f0565b60405180910390f35b3480156101bf57600080fd5b506101da60048036038101906101d59190610f79565b610bed565b6040516101e79190611108565b60405180910390f35b6101f8610c5a565b600061020382610bed565b905080341015610248576040517f08c379a000000000000000000000000000000000000000000000000000000000815260040161023f906112cb565b60405180910390fd5b60006002600084815260200190815260200160002090508060070160009054906101000a900460ff16156102b1576040517f08c379a00000000000000000000000000000000000000000000000000000000081526004016102a890611337565b60405180910390fd5b8060010160009054906101000a900473ffffffffffffffffffffffffffffffffffffffff1673ffffffffffffffffffffffffffffffffffffffff166323b872dd3033866040518463ffffffff1660e01b815260040161031293929190611366565b600060405180830381600087803b15801561032c57600080fd5b505af1158015610340573d6000803e3d6000fd5b5050505060018160070160006101000a81548160ff02191690831515021790555061036a83610ca0565b8060010160009054906101000a900473ffffffffffffffffffffffffffffffffffffffff1673ffffffffffffffffffffffffffffffffffffffff167ff51952cc62cdf124c19e7ec7be4992c1500562e6d70cbb2ae83c8544bf6150ed84836002015484600301548560040160009054906101000a900473ffffffffffffffffffffffffffffffffffffffff168660050160009054906101000a900473ffffffffffffffffffffffffffffffffffffffff1687600601543360405161043497969594939291906113be565b60405180910390a25050610446610f34565b50565b610451610c5a565b60008311610494576040517f08c379a000000000000000000000000000000000000000000000000000000000815260040161048b90611479565b60405180910390fd5b8173ffffffffffffffffffffffffffffffffffffffff163373ffffffffffffffffffffffffffffffffffffffff1603610502576040517f08c379a00000000000000000000000000000000000000000000000000000000081526004016104f9906114e5565b60405180910390fd5b6000811180156105125750606481105b610551576040517f08c379a000000000000000000000000000000000000000000000000000000000815260040161054890611551565b60405180910390fd5b8473ffffffffffffffffffffffffffffffffffffffff166323b872dd3330876040518463ffffffff1660e01b815260040161058e93929190611366565b600060405180830381600087803b1580156105a857600080fd5b505af11580156105bc573d6000803e3d6000fd5b50505050600160008154809291906105d3906115a0565b919050555060405180610100016040528060015481526020018673ffffffffffffffffffffffffffffffffffffffff1681526020018581526020018481526020013373ffffffffffffffffffffffffffffffffffffffff1681526020018373ffffffffffffffffffffffffffffffffffffffff168152602001828152602001600015158152506002600060015481526020019081526020016000206000820151816000015560208201518160010160006101000a81548173ffffffffffffffffffffffffffffffffffffffff021916908373ffffffffffffffffffffffffffffffffffffffff160217905550604082015181600201556060820151816003015560808201518160040160006101000a81548173ffffffffffffffffffffffffffffffffffffffff021916908373ffffffffffffffffffffffffffffffffffffffff16021790555060a08201518160050160006101000a81548173ffffffffffffffffffffffffffffffffffffffff021916908373ffffffffffffffffffffffffffffffffffffffff16021790555060c0820151816006015560e08201518160070160006101000a81548160ff0219169083151502179055509050508473ffffffffffffffffffffffffffffffffffffffff167f03b7487dd75c9a44820e6ae386686b88abfabaf56869cab723a3ad119a902b6a60015486863387876040516107e0969594939291906115e8565b60405180910390a26107f0610f34565b5050505050565b7f000000000000000000000000000000000000000000000000000000000000000081565b60015481565b610829610c5a565b6000811161086c576040517f08c379a000000000000000000000000000000000000000000000000000000000815260040161086390611695565b60405180910390fd5b6001600081548092919061087f906115a0565b91905055508273ffffffffffffffffffffffffffffffffffffffff166323b872dd3330856040518463ffffffff1660e01b81526004016108c193929190611366565b600060405180830381600087803b1580156108db57600080fd5b505af11580156108ef573d6000803e3d6000fd5b5050505060405180610100016040528060015481526020018473ffffffffffffffffffffffffffffffffffffffff1681526020018381526020018281526020013373ffffffffffffffffffffffffffffffffffffffff168152602001600073ffffffffffffffffffffffffffffffffffffffff16815260200160648152602001600015158152506002600060015481526020019081526020016000206000820151816000015560208201518160010160006101000a81548173ffffffffffffffffffffffffffffffffffffffff021916908373ffffffffffffffffffffffffffffffffffffffff160217905550604082015181600201556060820151816003015560808201518160040160006101000a81548173ffffffffffffffffffffffffffffffffffffffff021916908373ffffffffffffffffffffffffffffffffffffffff16021790555060a08201518160050160006101000a81548173ffffffffffffffffffffffffffffffffffffffff021916908373ffffffffffffffffffffffffffffffffffffffff16021790555060c0820151816006015560e08201518160070160006101000a81548160ff0219169083151502179055509050508273ffffffffffffffffffffffffffffffffffffffff167f03b7487dd75c9a44820e6ae386686b88abfabaf56869cab723a3ad119a902b6a60015484843360006064604051610aff969594939291906116f0565b60405180910390a2610b0f610f34565b505050565b7f000000000000000000000000000000000000000000000000000000000000000081565b60026020528060005260406000206000915090508060000154908060010160009054906101000a900473ffffffffffffffffffffffffffffffffffffffff16908060020154908060030154908060040160009054906101000a900473ffffffffffffffffffffffffffffffffffffffff16908060050160009054906101000a900473ffffffffffffffffffffffffffffffffffffffff16908060060154908060070160009054906101000a900460ff16905088565b60008060026000848152602001908152602001600020600301549050600060647f000000000000000000000000000000000000000000000000000000000000000083610c399190611751565b610c4391906117c2565b82610c4e91906117f3565b90508092505050919050565b600260005403610c96576040517f3ee5aeb500000000000000000000000000000000000000000000000000000000815260040160405180910390fd5b6002600081905550565b6000610cab82610bed565b905060006002600084815260200190815260200160002060030154905060006002600085815260200190815260200160002060040160009054906101000a900473ffffffffffffffffffffffffffffffffffffffff16905060006002600086815260200190815260200160002060050160009054906101000a900473ffffffffffffffffffffffffffffffffffffffff169050600060026000878152602001908152602001600020600601549050600073ffffffffffffffffffffffffffffffffffffffff168273ffffffffffffffffffffffffffffffffffffffff1603610dd9578273ffffffffffffffffffffffffffffffffffffffff166108fc859081150290604051600060405180830381858888f19350505050158015610dd3573d6000803e3d6000fd5b50610eb4565b600060648286610de99190611751565b610df391906117c2565b90508373ffffffffffffffffffffffffffffffffffffffff166108fc829081150290604051600060405180830381858888f19350505050158015610e3b573d6000803e3d6000fd5b506000826064610e4b9190611827565b9050600060648288610e5d9190611751565b610e6791906117c2565b90508473ffffffffffffffffffffffffffffffffffffffff166108fc829081150290604051600060405180830381858888f19350505050158015610eaf573d6000803e3d6000fd5b505050505b60008486610ec29190611827565b90507f000000000000000000000000000000000000000000000000000000000000000073ffffffffffffffffffffffffffffffffffffffff166108fc829081150290604051600060405180830381858888f19350505050158015610f2a573d6000803e3d6000fd5b5050505050505050565b6001600081905550565b600080fd5b6000819050919050565b610f5681610f43565b8114610f6157600080fd5b50565b600081359050610f7381610f4d565b92915050565b600060208284031215610f8f57610f8e610f3e565b5b6000610f9d84828501610f64565b91505092915050565b600073ffffffffffffffffffffffffffffffffffffffff82169050919050565b6000610fd182610fa6565b9050919050565b6000610fe382610fc6565b9050919050565b610ff381610fd8565b8114610ffe57600080fd5b50565b60008135905061101081610fea565b92915050565b61101f81610fc6565b811461102a57600080fd5b50565b60008135905061103c81611016565b92915050565b600080600080600060a0868803121561105e5761105d610f3e565b5b600061106c88828901611001565b955050602061107d88828901610f64565b945050604061108e88828901610f64565b935050606061109f8882890161102d565b92505060806110b088828901610f64565b9150509295509295909350565b60006110c882610fa6565b9050919050565b6110d8816110bd565b82525050565b60006020820190506110f360008301846110cf565b92915050565b61110281610f43565b82525050565b600060208201905061111d60008301846110f9565b92915050565b60008060006060848603121561113c5761113b610f3e565b5b600061114a86828701611001565b935050602061115b86828701610f64565b925050604061116c86828701610f64565b9150509250925092565b6000819050919050565b600061119b61119661119184610fa6565b611176565b610fa6565b9050919050565b60006111ad82611180565b9050919050565b60006111bf826111a2565b9050919050565b6111cf816111b4565b82525050565b60008115159050919050565b6111ea816111d5565b82525050565b600061010082019050611206600083018b6110f9565b611213602083018a6111c6565b61122060408301896110f9565b61122d60608301886110f9565b61123a60808301876110cf565b61124760a08301866110cf565b61125460c08301856110f9565b61126160e08301846111e1565b9998505050505050505050565b600082825260208201905092915050565b7f446964206e6f742073656e6420656e6f7567682066756e647320746f20627579600082015250565b60006112b560208361126e565b91506112c08261127f565b602082019050919050565b600060208201905081810360008301526112e4816112a8565b9050919050565b7f4974656d20616c726561647920736f6c64000000000000000000000000000000600082015250565b600061132160118361126e565b915061132c826112eb565b602082019050919050565b6000602082019050818103600083015261135081611314565b9050919050565b61136081610fc6565b82525050565b600060608201905061137b6000830186611357565b6113886020830185611357565b61139560408301846110f9565b949350505050565b60006113a8826111a2565b9050919050565b6113b88161139d565b82525050565b600060e0820190506113d3600083018a6110f9565b6113e060208301896110f9565b6113ed60408301886110f9565b6113fa60608301876113af565b61140760808301866113af565b61141460a08301856110f9565b61142160c0830184611357565b98975050505050505050565b7f43616e6e6f74206c69737420666f722066726565000000000000000000000000600082015250565b600061146360148361126e565b915061146e8261142d565b602082019050919050565b6000602082019050818103600083015261149281611456565b9050919050565b7f43616e6e6f74206b65657020796f757273656c6620617320636f2d6f776e6572600082015250565b60006114cf60208361126e565b91506114da82611499565b602082019050919050565b600060208201905081810360008301526114fe816114c2565b9050919050565b7f496e76616c696420637574000000000000000000000000000000000000000000600082015250565b600061153b600b8361126e565b915061154682611505565b602082019050919050565b6000602082019050818103600083015261156a8161152e565b9050919050565b7f4e487b7100000000000000000000000000000000000000000000000000000000600052601160045260246000fd5b60006115ab82610f43565b91507fffffffffffffffffffffffffffffffffffffffffffffffffffffffffffffffff82036115dd576115dc611571565b5b600182019050919050565b600060c0820190506115fd60008301896110f9565b61160a60208301886110f9565b61161760408301876110f9565b6116246060830186611357565b6116316080830185611357565b61163e60a08301846110f9565b979650505050505050565b7f43616e2774206c69737420616e206e667420666f722066726565000000000000600082015250565b600061167f601a8361126e565b915061168a82611649565b602082019050919050565b600060208201905081810360008301526116ae81611672565b9050919050565b6000819050919050565b60006116da6116d56116d0846116b5565b611176565b610f43565b9050919050565b6116ea816116bf565b82525050565b600060c08201905061170560008301896110f9565b61171260208301886110f9565b61171f60408301876110f9565b61172c6060830186611357565b6117396080830185611357565b61174660a08301846116e1565b979650505050505050565b600061175c82610f43565b915061176783610f43565b925082820261177581610f43565b9150828204841483151761178c5761178b611571565b5b5092915050565b7f4e487b7100000000000000000000000000000000000000000000000000000000600052601260045260246000fd5b60006117cd82610f43565b91506117d883610f43565b9250826117e8576117e7611793565b5b828204905092915050565b60006117fe82610f43565b915061180983610f43565b925082820190508082111561182157611820611571565b5b92915050565b600061183282610f43565b915061183d83610f43565b925082820390508181111561185557611854611571565b5b9291505056fea26469706673582212201c56fccca551a0bd4b93ad09742244ff3554af6fdbb6e2f6ac43d6f78813687364736f6c63430008140033",
  "linkReferences": {},
  "deployedLinkReferences": {}
}