{
  "_format": "hh-sol-artifact-1",
  "contractName": "Market",
  "sourceName": "contracts/Market.sol",
  "abi": [
    {
      "inputs": [
        {
          "internalType": "address",
          "name": "_feeAccount",
          "type": "address"
        },
        {
          "internalType": "uint256",
          "name": "_feePercentage",
          "type": "uint256"
        }
      ],
      "stateMutability": "nonpayable",
      "type": "constructor"
    },
    {
      "inputs": [],
      "name": "ReentrancyGuardReentrantCall",
      "type": "error"
    },
    {
      "anonymous": false,
      "inputs": [
        {
          "indexed": false,
          "internalType": "uint256",
          "name": "itemId",
          "type": "uint256"
        },
        {
          "indexed": true,
          "internalType": "address",
          "name": "nft",
          "type": "address"
        },
        {
          "indexed": false,
          "internalType": "uint256",
          "name": "tokenId",
          "type": "uint256"
        },
        {
          "indexed": false,
          "internalType": "uint256",
          "name": "price",
          "type": "uint256"
        },
        {
          "indexed": false,
          "internalType": "address",
          "name": "owner",
          "type": "address"
        },
        {
          "indexed": false,
          "internalType": "address",
          "name": "co_owner",
          "type": "address"
        },
        {
          "indexed": false,
          "internalType": "uint256",
          "name": "owner_cut",
          "type": "uint256"
        },
        {
          "indexed": false,
          "internalType": "address",
          "name": "buyer",
          "type": "address"
        }
      ],
      "name": "Bought",
      "type": "event"
    },
    {
      "anonymous": false,
      "inputs": [
        {
          "indexed": false,
          "internalType": "uint256",
          "name": "itemId",
          "type": "uint256"
        },
        {
          "indexed": true,
          "internalType": "address",
          "name": "nft",
          "type": "address"
        },
        {
          "indexed": false,
          "internalType": "uint256",
          "name": "tokenId",
          "type": "uint256"
        },
        {
          "indexed": false,
          "internalType": "uint256",
          "name": "price",
          "type": "uint256"
        },
        {
          "indexed": false,
          "internalType": "address",
          "name": "owner",
          "type": "address"
        },
        {
          "indexed": false,
          "internalType": "address",
          "name": "co_owner",
          "type": "address"
        },
        {
          "indexed": false,
          "internalType": "uint256",
          "name": "owner_cut",
          "type": "uint256"
        }
      ],
      "name": "Offered",
      "type": "event"
    },
    {
      "inputs": [
        {
          "internalType": "contract IERC721",
          "name": "_nft",
          "type": "address"
        },
        {
          "internalType": "uint256",
          "name": "_tokenId",
          "type": "uint256"
        },
        {
          "internalType": "uint256",
          "name": "_price",
          "type": "uint256"
        },
        {
          "internalType": "address",
          "name": "_coOwner",
          "type": "address"
        },
        {
          "internalType": "uint256",
          "name": "_selfCut",
          "type": "uint256"
        }
      ],
      "name": "Co_listItem",
      "outputs": [],
      "stateMutability": "nonpayable",
      "type": "function"
    },
    {
      "inputs": [
        {
          "internalType": "uint256",
          "name": "_itemId",
          "type": "uint256"
        }
      ],
      "name": "buyNft",
      "outputs": [],
      "stateMutability": "payable",
      "type": "function"
    },
    {
      "inputs": [],
      "name": "feeAccount",
      "outputs": [
        {
          "internalType": "address payable",
          "name": "",
          "type": "address"
        }
      ],
      "stateMutability": "view",
      "type": "function"
    },
    {
      "inputs": [],
      "name": "feePercentage",
      "outputs": [
        {
          "internalType": "uint256",
          "name": "",
          "type": "uint256"
        }
      ],
      "stateMutability": "view",
      "type": "function"
    },
    {
      "inputs": [
        {
          "internalType": "uint256",
          "name": "_itemId",
          "type": "uint256"
        }
      ],
      "name": "getPrice",
      "outputs": [
        {
          "internalType": "uint256",
          "name": "",
          "type": "uint256"
        }
      ],
      "stateMutability": "view",
      "type": "function"
    },
    {
      "inputs": [],
      "name": "getTokenCount",
      "outputs": [
        {
          "internalType": "uint256",
          "name": "",
          "type": "uint256"
        }
      ],
      "stateMutability": "view",
      "type": "function"
    },
    {
      "inputs": [],
      "name": "itemCount",
      "outputs": [
        {
          "internalType": "uint256",
          "name": "",
          "type": "uint256"
        }
      ],
      "stateMutability": "view",
      "type": "function"
    },
    {
      "inputs": [
        {
          "internalType": "uint256",
          "name": "",
          "type": "uint256"
        }
      ],
      "name": "items",
      "outputs": [
        {
          "internalType": "uint256",
          "name": "itemId",
          "type": "uint256"
        },
        {
          "internalType": "contract IERC721",
          "name": "nft",
          "type": "address"
        },
        {
          "internalType": "uint256",
          "name": "tokenId",
          "type": "uint256"
        },
        {
          "internalType": "uint256",
          "name": "price",
          "type": "uint256"
        },
        {
          "internalType": "address payable",
          "name": "owner",
          "type": "address"
        },
        {
          "internalType": "address payable",
          "name": "co_owner",
          "type": "address"
        },
        {
          "internalType": "uint256",
          "name": "owner_cut",
          "type": "uint256"
        },
        {
          "internalType": "bool",
          "name": "sold",
          "type": "bool"
        }
      ],
      "stateMutability": "view",
      "type": "function"
    },
    {
      "inputs": [
        {
          "internalType": "contract IERC721",
          "name": "_nft",
          "type": "address"
        },
        {
          "internalType": "uint256",
          "name": "_tokenId",
          "type": "uint256"
        },
        {
          "internalType": "uint256",
          "name": "_price",
          "type": "uint256"
        }
      ],
      "name": "listItem",
      "outputs": [],
      "stateMutability": "nonpayable",
      "type": "function"
    }
  ],
  "bytecode": "0x60c06040523480156200001157600080fd5b5060405162001a7c38038062001a7c833981810160405281019062000037919062000130565b60016000819055508173ffffffffffffffffffffffffffffffffffffffff1660808173ffffffffffffffffffffffffffffffffffffffff16815250508060a081815250506000600181905550505062000177565b600080fd5b600073ffffffffffffffffffffffffffffffffffffffff82169050919050565b6000620000bd8262000090565b9050919050565b620000cf81620000b0565b8114620000db57600080fd5b50565b600081519050620000ef81620000c4565b92915050565b6000819050919050565b6200010a81620000f5565b81146200011657600080fd5b50565b6000815190506200012a81620000ff565b92915050565b600080604083850312156200014a57620001496200008b565b5b60006200015a85828601620000de565b92505060206200016d8582860162000119565b9150509250929050565b60805160a0516118d1620001ab60003960008181610b560152610c4f01526000818161082f0152610f0601526118d16000f3fe6080604052600436106100865760003560e01c806378a895671161005957806378a895671461012657806389bfd38f14610151578063a001ecdd1461017a578063bfb231d2146101a5578063e7572230146101e957610086565b8063243adbdd1461008b5780633fdc15cd146100a757806365e17c9d146100d05780636bfb0d01146100fb575b600080fd5b6100a560048036038101906100a09190610fb9565b610226565b005b3480156100b357600080fd5b506100ce60048036038101906100c99190611082565b61047f565b005b3480156100dc57600080fd5b506100e561082d565b6040516100f2919061111e565b60405180910390f35b34801561010757600080fd5b50610110610851565b60405161011d9190611148565b60405180910390f35b34801561013257600080fd5b5061013b610857565b6040516101489190611148565b60405180910390f35b34801561015d57600080fd5b5061017860048036038101906101739190611163565b610861565b005b34801561018657600080fd5b5061018f610b54565b60405161019c9190611148565b60405180910390f35b3480156101b157600080fd5b506101cc60048036038101906101c79190610fb9565b610b78565b6040516101e0989796959493929190611230565b60405180910390f35b3480156101f557600080fd5b50610210600480360381019061020b9190610fb9565b610c2d565b60405161021d9190611148565b60405180910390f35b61022e610c9a565b600061023982610c2d565b90508034101561027e576040517f08c379a00000000000000000000000000000000000000000000000000000000081526004016102759061130b565b60405180910390fd5b60006002600084815260200190815260200160002090508060070160009054906101000a900460ff16156102e7576040517f08c379a00000000000000000000000000000000000000000000000000000000081526004016102de90611377565b60405180910390fd5b8060010160009054906101000a900473ffffffffffffffffffffffffffffffffffffffff1673ffffffffffffffffffffffffffffffffffffffff166323b872dd3033866040518463ffffffff1660e01b8152600401610348939291906113a6565b600060405180830381600087803b15801561036257600080fd5b505af1158015610376573d6000803e3d6000fd5b5050505060018160070160006101000a81548160ff0219169083151502179055506103a083610ce0565b8060010160009054906101000a900473ffffffffffffffffffffffffffffffffffffffff1673ffffffffffffffffffffffffffffffffffffffff167ff51952cc62cdf124c19e7ec7be4992c1500562e6d70cbb2ae83c8544bf6150ed84836002015484600301548560040160009054906101000a900473ffffffffffffffffffffffffffffffffffffffff168660050160009054906101000a900473ffffffffffffffffffffffffffffffffffffffff1687600601543360405161046a97969594939291906113fe565b60405180910390a2505061047c610f74565b50565b610487610c9a565b600083116104ca576040517f08c379a00000000000000000000000000000000000000000000000000000000081526004016104c1906114b9565b60405180910390fd5b8173ffffffffffffffffffffffffffffffffffffffff163373ffffffffffffffffffffffffffffffffffffffff1603610538576040517f08c379a000000000000000000000000000000000000000000000000000000000815260040161052f90611525565b60405180910390fd5b6000811180156105485750606481105b610587576040517f08c379a000000000000000000000000000000000000000000000000000000000815260040161057e90611591565b60405180910390fd5b8473ffffffffffffffffffffffffffffffffffffffff166323b872dd3330876040518463ffffffff1660e01b81526004016105c4939291906113a6565b600060405180830381600087803b1580156105de57600080fd5b505af11580156105f2573d6000803e3d6000fd5b5050505060016000815480929190610609906115e0565b919050555060405180610100016040528060015481526020018673ffffffffffffffffffffffffffffffffffffffff1681526020018581526020018481526020013373ffffffffffffffffffffffffffffffffffffffff1681526020018373ffffffffffffffffffffffffffffffffffffffff168152602001828152602001600015158152506002600060015481526020019081526020016000206000820151816000015560208201518160010160006101000a81548173ffffffffffffffffffffffffffffffffffffffff021916908373ffffffffffffffffffffffffffffffffffffffff160217905550604082015181600201556060820151816003015560808201518160040160006101000a81548173ffffffffffffffffffffffffffffffffffffffff021916908373ffffffffffffffffffffffffffffffffffffffff16021790555060a08201518160050160006101000a81548173ffffffffffffffffffffffffffffffffffffffff021916908373ffffffffffffffffffffffffffffffffffffffff16021790555060c0820151816006015560e08201518160070160006101000a81548160ff0219169083151502179055509050508473ffffffffffffffffffffffffffffffffffffffff167f03b7487dd75c9a44820e6ae386686b88abfabaf56869cab723a3ad119a902b6a600154868633878760405161081696959493929190611628565b60405180910390a2610826610f74565b5050505050565b7f000000000000000000000000000000000000000000000000000000000000000081565b60015481565b6000600154905090565b610869610c9a565b600081116108ac576040517f08c379a00000000000000000000000000000000000000000000000000000000081526004016108a3906116d5565b60405180910390fd5b600160008154809291906108bf906115e0565b91905055508273ffffffffffffffffffffffffffffffffffffffff166323b872dd3330856040518463ffffffff1660e01b8152600401610901939291906113a6565b600060405180830381600087803b15801561091b57600080fd5b505af115801561092f573d6000803e3d6000fd5b5050505060405180610100016040528060015481526020018473ffffffffffffffffffffffffffffffffffffffff1681526020018381526020018281526020013373ffffffffffffffffffffffffffffffffffffffff168152602001600073ffffffffffffffffffffffffffffffffffffffff16815260200160648152602001600015158152506002600060015481526020019081526020016000206000820151816000015560208201518160010160006101000a81548173ffffffffffffffffffffffffffffffffffffffff021916908373ffffffffffffffffffffffffffffffffffffffff160217905550604082015181600201556060820151816003015560808201518160040160006101000a81548173ffffffffffffffffffffffffffffffffffffffff021916908373ffffffffffffffffffffffffffffffffffffffff16021790555060a08201518160050160006101000a81548173ffffffffffffffffffffffffffffffffffffffff021916908373ffffffffffffffffffffffffffffffffffffffff16021790555060c0820151816006015560e08201518160070160006101000a81548160ff0219169083151502179055509050508273ffffffffffffffffffffffffffffffffffffffff167f03b7487dd75c9a44820e6ae386686b88abfabaf56869cab723a3ad119a902b6a60015484843360006064604051610b3f96959493929190611730565b60405180910390a2610b4f610f74565b505050565b7f000000000000000000000000000000000000000000000000000000000000000081565b60026020528060005260406000206000915090508060000154908060010160009054906101000a900473ffffffffffffffffffffffffffffffffffffffff16908060020154908060030154908060040160009054906101000a900473ffffffffffffffffffffffffffffffffffffffff16908060050160009054906101000a900473ffffffffffffffffffffffffffffffffffffffff16908060060154908060070160009054906101000a900460ff16905088565b60008060026000848152602001908152602001600020600301549050600060647f000000000000000000000000000000000000000000000000000000000000000083610c799190611791565b610c839190611802565b82610c8e9190611833565b90508092505050919050565b600260005403610cd6576040517f3ee5aeb500000000000000000000000000000000000000000000000000000000815260040160405180910390fd5b6002600081905550565b6000610ceb82610c2d565b905060006002600084815260200190815260200160002060030154905060006002600085815260200190815260200160002060040160009054906101000a900473ffffffffffffffffffffffffffffffffffffffff16905060006002600086815260200190815260200160002060050160009054906101000a900473ffffffffffffffffffffffffffffffffffffffff169050600060026000878152602001908152602001600020600601549050600073ffffffffffffffffffffffffffffffffffffffff168273ffffffffffffffffffffffffffffffffffffffff1603610e19578273ffffffffffffffffffffffffffffffffffffffff166108fc859081150290604051600060405180830381858888f19350505050158015610e13573d6000803e3d6000fd5b50610ef4565b600060648286610e299190611791565b610e339190611802565b90508373ffffffffffffffffffffffffffffffffffffffff166108fc829081150290604051600060405180830381858888f19350505050158015610e7b573d6000803e3d6000fd5b506000826064610e8b9190611867565b9050600060648288610e9d9190611791565b610ea79190611802565b90508473ffffffffffffffffffffffffffffffffffffffff166108fc829081150290604051600060405180830381858888f19350505050158015610eef573d6000803e3d6000fd5b505050505b60008486610f029190611867565b90507f000000000000000000000000000000000000000000000000000000000000000073ffffffffffffffffffffffffffffffffffffffff166108fc829081150290604051600060405180830381858888f19350505050158015610f6a573d6000803e3d6000fd5b5050505050505050565b6001600081905550565b600080fd5b6000819050919050565b610f9681610f83565b8114610fa157600080fd5b50565b600081359050610fb381610f8d565b92915050565b600060208284031215610fcf57610fce610f7e565b5b6000610fdd84828501610fa4565b91505092915050565b600073ffffffffffffffffffffffffffffffffffffffff82169050919050565b600061101182610fe6565b9050919050565b600061102382611006565b9050919050565b61103381611018565b811461103e57600080fd5b50565b6000813590506110508161102a565b92915050565b61105f81611006565b811461106a57600080fd5b50565b60008135905061107c81611056565b92915050565b600080600080600060a0868803121561109e5761109d610f7e565b5b60006110ac88828901611041565b95505060206110bd88828901610fa4565b94505060406110ce88828901610fa4565b93505060606110df8882890161106d565b92505060806110f088828901610fa4565b9150509295509295909350565b600061110882610fe6565b9050919050565b611118816110fd565b82525050565b6000602082019050611133600083018461110f565b92915050565b61114281610f83565b82525050565b600060208201905061115d6000830184611139565b92915050565b60008060006060848603121561117c5761117b610f7e565b5b600061118a86828701611041565b935050602061119b86828701610fa4565b92505060406111ac86828701610fa4565b9150509250925092565b6000819050919050565b60006111db6111d66111d184610fe6565b6111b6565b610fe6565b9050919050565b60006111ed826111c0565b9050919050565b60006111ff826111e2565b9050919050565b61120f816111f4565b82525050565b60008115159050919050565b61122a81611215565b82525050565b600061010082019050611246600083018b611139565b611253602083018a611206565b6112606040830189611139565b61126d6060830188611139565b61127a608083018761110f565b61128760a083018661110f565b61129460c0830185611139565b6112a160e0830184611221565b9998505050505050505050565b600082825260208201905092915050565b7f446964206e6f742073656e6420656e6f7567682066756e647320746f20627579600082015250565b60006112f56020836112ae565b9150611300826112bf565b602082019050919050565b60006020820190508181036000830152611324816112e8565b9050919050565b7f4974656d20616c726561647920736f6c64000000000000000000000000000000600082015250565b60006113616011836112ae565b915061136c8261132b565b602082019050919050565b6000602082019050818103600083015261139081611354565b9050919050565b6113a081611006565b82525050565b60006060820190506113bb6000830186611397565b6113c86020830185611397565b6113d56040830184611139565b949350505050565b60006113e8826111e2565b9050919050565b6113f8816113dd565b82525050565b600060e082019050611413600083018a611139565b6114206020830189611139565b61142d6040830188611139565b61143a60608301876113ef565b61144760808301866113ef565b61145460a0830185611139565b61146160c0830184611397565b98975050505050505050565b7f43616e6e6f74206c69737420666f722066726565000000000000000000000000600082015250565b60006114a36014836112ae565b91506114ae8261146d565b602082019050919050565b600060208201905081810360008301526114d281611496565b9050919050565b7f43616e6e6f74206b65657020796f757273656c6620617320636f2d6f776e6572600082015250565b600061150f6020836112ae565b915061151a826114d9565b602082019050919050565b6000602082019050818103600083015261153e81611502565b9050919050565b7f496e76616c696420637574000000000000000000000000000000000000000000600082015250565b600061157b600b836112ae565b915061158682611545565b602082019050919050565b600060208201905081810360008301526115aa8161156e565b9050919050565b7f4e487b7100000000000000000000000000000000000000000000000000000000600052601160045260246000fd5b60006115eb82610f83565b91507fffffffffffffffffffffffffffffffffffffffffffffffffffffffffffffffff820361161d5761161c6115b1565b5b600182019050919050565b600060c08201905061163d6000830189611139565b61164a6020830188611139565b6116576040830187611139565b6116646060830186611397565b6116716080830185611397565b61167e60a0830184611139565b979650505050505050565b7f43616e2774206c69737420616e206e667420666f722066726565000000000000600082015250565b60006116bf601a836112ae565b91506116ca82611689565b602082019050919050565b600060208201905081810360008301526116ee816116b2565b9050919050565b6000819050919050565b600061171a611715611710846116f5565b6111b6565b610f83565b9050919050565b61172a816116ff565b82525050565b600060c0820190506117456000830189611139565b6117526020830188611139565b61175f6040830187611139565b61176c6060830186611397565b6117796080830185611397565b61178660a0830184611721565b979650505050505050565b600061179c82610f83565b91506117a783610f83565b92508282026117b581610f83565b915082820484148315176117cc576117cb6115b1565b5b5092915050565b7f4e487b7100000000000000000000000000000000000000000000000000000000600052601260045260246000fd5b600061180d82610f83565b915061181883610f83565b925082611828576118276117d3565b5b828204905092915050565b600061183e82610f83565b915061184983610f83565b9250828201905080821115611861576118606115b1565b5b92915050565b600061187282610f83565b915061187d83610f83565b9250828203905081811115611895576118946115b1565b5b9291505056fea2646970667358221220b573ff9bbf315572b1e6bf6c3d039d90719ef7bf229afbf57ea84cad239b846264736f6c63430008170033",
  "linkReferences": {},
  "deployedLinkReferences": {}
}